S02B0000433A5C55736572735C6D616E75655C4F6E6544726976655C446F6B756D656E74655C536368756C6537
S11300000C9434000C9451000C9451000C94510045
S11300100C9451000C9451000C9451000C94510018
S11300200C9451000C9451000C9451000C94510008
S11300300C9451000C9451000C9451000C945100F8
S11300400C9451000C9451000C9486000C945100B3
S11300500C9451000C9451000C9451000C945100D8
S11300600C9451000C94510011241FBECFEFD8E022
S1130070DEBFCDBF11E0A0E0B1E0E2ECF1E002C0F0
S113008005900D92A030B107D9F721E0A0E0B1E0CE
S113009001C01D92A232B207E1F70E9453000C94F2
S11300A0DF000C94000060E970ED83E090E00E94B2
S11300B0730088E184B915B820E031E040E085B1EF
S11300C0922F990F990F990F9870877F892B85B973
S11300D0832F2111842F282F8FE39CE90197F1F7B7
S11300E000C00000ECCF9B01AC0160E472E48FE03F
S11300F090E00E94BD0021503109E0ECF0E035832E
S1130100248388E181838EE0828308951F920F9275
S11301100FB60F9211242F938F939F93AF93BF9396
S1130120EF93FF93E0ECF0E019C026818091010188
S113013090E001968F719078992324F40197806E52
S11301409F6F019690910001891741F0A0910101E0
S1130150B0E0AE5FBE4F2C93809301018081882371
S113016024F3FF91EF91BF91AF919F918F912F91C4
S11301700F900FBE0F901F901895A1E21A2EAA1B84
S1130180BB1BFD010DC0AA1FBB1FEE1FFF1FA21743
S1130190B307E407F50720F0A21BB30BE40BF50B40
S11301A0661F771F881F991F1A9469F760957095C9
S11301B0809590959B01AC01BD01CF010895F89401
S10501C0FFCF6B
S9030000FC
